:100000000C9473000C949F000C949F000C949F0020
:100010000C949F000C949F000C949F000C949F00E4
:100020000C949F000C949F000C949F000C949F00D4
:100030000C949F000C949F000C949F000C949F00C4
:100040000C949F000C949F000C949F000C949F00B4
:100050000C949F000C949F000C949F000C949F00A4
:100060000C949F000C94D2000C949F000C949F0061
:100070000C949F000C949F000C949F000C949F0084
:100080000C949F000C949F000C949F000C949F0074
:100090000C949F000C949F000C949F000C949F0064
:1000A0000C949F000C949F000C949F000C949F0054
:1000B0000C949F000C949F000C949F000C949F0044
:1000C0000C949F000C949F000C949F000C949F0034
:1000D0000C949F000C949F000C949F000C949F0024
:1000E0000C949F00A10011241FBECFEFD1E2DEBF10
:1000F000CDBF00E00CBF12E0A0E0B2E0E6E8F3E024
:1001000000E00BBF02C007900D92AC30B107D9F7E9
:1001100013E0ACE0B2E001C01D92AE30B107E1F7F0
:1001200010E0C6EED0E004C02297FE010E94AF01AD
:10013000C43ED107C9F70E94C7000C94C1010C94BA
:1001400000008CE092E00E941A01089580910D0257
:100150008823E1F08CE092E06EE072E00E94900172
:100160008EE092E060E072E047E050E00E94B30170
:10017000009731F48CE092E068E072E00E94900118
:100180008CE092E00E94A00110920D0208958CE094
:1001900092E040E855E260E070E00E9472010E9447
:1001A000A600FDCF1F920F920FB60F920BB60F92C3
:1001B00011242F933F934F935F936F937F938F936C
:1001C0009F93AF93BF93CF93DF93EF93FF93809170
:1001D0000C02C82FD0E08CE092E00E949D01C45F29
:1001E000DD4F8A8390910C02E92FF0E0E45FFD4F30
:1001F00082818A3019F481E080930D029F5F909391
:100200000C02FF91EF91DF91CF91BF91AF919F9140
:100210008F917F916F915F914F913F912F910F90AF
:100220000BBE0F900FBE0F901F901895FC0110820F
:1002300011820895FC01108211820895403C82E1F0
:10024000580780E0680780E0780779F0403885E259
:10025000580780E0680780E0780759F486E08093CB
:10026000C40083E38093C40035C08CE08093C40055
:1002700015C0403082EC580781E0680780E07807BD
:1002800049F0403C82E1580780E0680780E0780749
:1002900049F404C083E08093C4001AC08FEC8093BB
:1002A000C4001CC0403885E2580780E0680780E041
:1002B000780781F0403082EC580781E0680780E0E1
:1002C000780731F0405C52416040704051F406C004
:1002D00088E001C087E68093C40008958FEC809386
:1002E000C40008950E941E01E1ECF0E08081886165
:1002F0008083808180688083E2ECF0E0808186608A
:10030000808380818F7B808380818F7780837894C6
:1003100008958091C00085FFFCCF6093C6000895CA
:10032000FB0107C08091C00085FFFCCF9093C60001
:10033000319690819923B1F708958091C600089570
:10034000DC01FC0180E090E012820196319621E010
:1003500080309207C9F71C920895EE0FFF1F059099
:10036000F491E02D1994FB01DC014150504030F034
:100370008D910190801919F40020B9F7881B990B11
:060380000895F894FFCF80
:0C0386004D434C45414E53004F4B0A00C4
:00000001FF
